:0400000055EF00F0C8
:100008003782FACF01F0FBCF02F0E9CF03F0EACF55
:1000180004F0E1CF05F0E2CF06F0D9CF07F0DACF50
:1000280008F0F3CF09F0F4CF0AF0F6CF0BF0F7CFD2
:100038000CF0F8CF0DF0F5CF0EF0F2BC9DAC05D06A
:100048009EAC03D0FBEC03F00ED0F2BC7DA405D02F
:100058007EA403D08DEC03F006D0F2BC9DA203D0A1
:100068009EB29EEC03F00EC0F5FF0DC0F8FF0CC069
:10007800F7FF0BC0F6FF0AC0F4FF09C0F3FF08C082
:10008800DAFF07C0D9FF06C0E2FF05C0E1FF04C0E0
:10009800EAFF03C0E9FF02C0FBFF01C0FAFF379285
:1000A8001100D0EF02F0D4D0010E346E000E336E82
:1000B80012003350D8A40DD0000EB96E000E636E36
:1000C8008B948C9A8B928B80010E336E010E356E59
:1000D800120049EC01F013C016F014C017F08B940D
:1000E8008C9A8B928B8016501710D8B41200020E7F
:1000F800346E12003304D8A405D0020E336E010EFC
:10010800356E120049EC01F013C016F014C017F058
:100118008B948B928B9016501710D8B41200030E44
:10012800346E1200020E3318D8A405D0030E336EB5
:10013800010E356E120049EC01F013C016F014C020
:1001480017F08B948B928B9016501710D8B412001E
:10015800040E346E1200030E3318D8A405D0040E12
:10016800336E010E356E120049EC01F013C016F023
:1001780014C017F08B948B9016501710D8B4120037
:10018800050E346E1200040E3318D8A405D0050EDF
:10019800336E010E356E120049EC01F013C016F0F3
:1001A80014C017F08B948C9A8B9016501710D8B4F3
:1001B8001200060E346E1200050E3318D8A405D0AE
:1001C800060E336E010E356E120049EC01F013C0B5
:1001D80016F014C017F08C9A8B9016501710D8B4DC
:1001E8001200070E346E1200060E3318D8A405D07C
:1001F800070E336E010E356E120049EC01F013C084
:1002080016F014C017F08C9A8B928B90165017101A
:10021800D8B41200080E346E1200070E3318D8A492
:1002280005D0080E336E010E356E120049EC01F050
:1002380013C016F014C017F08B948C9A8B9216503A
:100248001710D8B41200010E346E000E336E12006F
:100258003450000AD8B428D7010AD8B42AD7030AD8
:10026800D8B448D7010AD8B45DD7070AD8B473D729
:10027800010AD8B488D7030AD8B49ED7010AD8B4DB
:10028800B3D70F0AD8A41200C8D7C5D034C00FF00E
:10029800106A2DEC02F020C00FF0106A05EC03F094
:1002A80018C00FF0106AEDEC02F0010EDEEC03F05E
:1002B8003550D8B404D0010E326E000E01D0010EB4
:1002C800156EC3D034C00FF0106A2DEC02F021C0B7
:1002D8000FF0106A05EC03F019C00FF0106AEDEC8E
:1002E80002F0020EDEEC03F03550D8B491D0020EC5
:1002F80090D034C00FF0106A2DEC02F022C00FF03D
:10030800106A05EC03F01AC00FF0106AEDEC02F069
:10031800030EDEEC03F03550D8B402D0030E79D0CA
:10032800010E77D034C00FF0106A2DEC02F023C014
:100338000FF0106A05EC03F01BC00FF0106AEDEC2B
:1003480002F0040EDEEC03F03550D8B4D0D7040E1A
:1003580060D034C00FF0106A2DEC02F024C00FF00A
:10036800106A05EC03F01CC00FF0106AEDEC02F007
:10037800050EDEEC03F03550D8B4D0D7050E49D0C1
:1003880034C00FF0106A2DEC02F025C00FF0106A8F
:1003980005EC03F01DC00FF0106AEDEC02F0060E3C
:1003A800DEEC03F03550D8B4D2D7060E32D034C0C4
:1003B8000FF0106A2DEC02F026C00FF0106A05EC61
:1003C80003F01EC00FF0106AEDEC02F0070EDEEC31
:1003D80003F03550D8B4D2D7070E1BD034C00FF075
:1003E800106A2DEC02F027C00FF0106A05EC03F03C
:1003F8001FC00FF0106AEDEC02F0080EDEEC03F0FF
:100408003550D8B4D2D7070E326E000E356E1DD0D7
:10041800000E326E1AD03250000AD8B437D7010A0B
:10042800D8B450D7030AD8B464D7010AD8B47AD755
:10043800070AD8B48ED7010AD8B4A2D7030AD8B409
:10044800B6D7010AD8B4CAD7E3D715C013F0146ACF
:1004580012002DD0000EB96E020E636E1200020E4D
:10046800B96E020E636E1200020EB96E000E636E54
:100478001200020EB96E010E636E1200000EB96E04
:10048800010E636E1200010EB96E010E636E12004A
:10049800010EB96E000E636E1200010EB96E020EE7
:1004A800636E1200000EB96E000E636E12000FC06C
:1004B80011F010C012F01250000AD8A4F3D711504E
:1004C800010AD8B4C7D7030AD8B4C9D7010AD8B41F
:1004D800CBD7070AD8B4CDD7010AD8B4CFD7030AE7
:1004E800D8B4D1D7010AD8B4D3D70F0AD8B4D5D73E
:1004F800D9D71DEC03F0EEEC03F0F4EC03F08A8C92
:10050800000E2B6E000E2A6E000E296E000E286E4D
:10051800F28EF28C29BE06D0F40E285C010E295802
:10052800D8B0F8D73650D8B4F5D72A4A2B2A2A0497
:100538002B10D8A408D057EC00F0284A292A000E1E
:100548002B6E000E2A6E000E366EE4D7000E8D6EEE
:10055800000E8C6E000E896E000E8A6E000E8B6E79
:10056800070E966EEB0E926EBF0E936EB80E946EDB
:10057800DF0E956E380E0F013A6F3E0E0F01396F80
:10058800DF0E0F013B6F030E0F013C6F2B0E0F01A7
:10059800386F6168F19E12009E0EF66E070EF76EB8
:1005A800000EF86E00EE18F010EE10F00900F5CF0E
:1005B800EEFFE550E150FAE100EE30F0070EEE6A8A
:1005C800E806FDE137903792000EF86E00017DEFE6
:1005D80002F00FC011F010C012F0D8901232113290
:1005E800D890123211321150676E0FC011F0030EFD
:1005F8001116113AF00E11166650CF0B1110666ED7
:1006080012000FC011F010C012F0D890123211323F
:10061800D890123211321150BE6E0FC011F0030E75
:100628001116113AF00E1116BD50CF0B1110BD6EF8
:100638001200F9EC03F0AAEC02F0D7EC03F032EC6C
:1006480003F046EC03F0C5EC03F0AEEC03F058EC15
:1006580003F07CEC03F0BAEC03F01200010E0F017A
:100668004A6F3C0E0F014B6F000E0F014C6F7E94CA
:100678007D84FA0E0F6E070E106EE4EC03F0F1ECB9
:1006880003F012000C0E666E000E646E800E656E2E
:10069800030E636E0C0E676E000E686E0F014951F3
:1006A800E70B1009496F12000C0EBD6E000EB66EF6
:1006B800800EB76E030EB96E0C0EBE6E000EBF6EC6
:1006C8000F014951FC0B0209496F1200010E366EE9
:1006D8002C502D10D8B4120001D812000500FA6E63
:1006E8002C50FD6E2D50FE6EF850FF6EFA50120021
:1006F800020EBA6E120EBB6E000EBC6E9E929D82EA
:10070800FC0E0F6E070E106EE9EC03F0F7EC03F029
:1007180012007E942E502F10D8B4120001D8120067
:100728000500FA6E2E50FD6E2F50FE6EF850FF6ECB
:10073800FA5012009E92304A312A315004E1100ECC
:10074800305CD8A012006AEC03F0000E316E000E87
:10075800306E1200010EC26E000EC16E020EC06E27
:10076800000EC36E000EC46E9D8C1200080EB86E8B
:10077800900EAB6E240EAC6EA00EAF6E010EB06E76
:100788001200000E0F01546F000E0F01556F000E7E
:100798000F01566F120018457199BCD8EDFAFAEDA1
:1007A800D8BC99714518700ED36E040ED26E000E27
:1007B8009B6E12000F6E9EA8FED70FC0ADFF1200F1
:1007C8000FC02EF010C02FF012000FC02CF010C078
:1007D8002DF01200000E346E12000F014A8512002F
:1007E800000E326E1200BA841200D09E12009E9C37
:0607F800120012001200C5
:020000040020DA
:08000000FFFFFFFFFFFFFFFF00
:020000040030CA
:0E000000FF281F3CFF9F85FF0FC00FE00F4041
:00000001FF
